{
  "contractName": "IdentityManager",
  "abi": [
    {
      "inputs": [],
      "stateMutability": "nonpayable",
      "type": "constructor"
    },
    {
      "inputs": [],
      "name": "ECDSAInvalidSignature",
      "type": "error"
    },
    {
      "inputs": [
        {
          "internalType": "uint256",
          "name": "length",
          "type": "uint256"
        }
      ],
      "name": "ECDSAInvalidSignatureLength",
      "type": "error"
    },
    {
      "inputs": [
        {
          "internalType": "bytes32",
          "name": "s",
          "type": "bytes32"
        }
      ],
      "name": "ECDSAInvalidSignatureS",
      "type": "error"
    },
    {
      "anonymous": false,
      "inputs": [
        {
          "indexed": true,
          "internalType": "address",
          "name": "contractAddress",
          "type": "address"
        }
      ],
      "name": "ContractCreate",
      "type": "event"
    },
    {
      "inputs": [
        {
          "internalType": "string",
          "name": "DID",
          "type": "string"
        }
      ],
      "name": "addUser",
      "outputs": [],
      "stateMutability": "nonpayable",
      "type": "function"
    },
    {
      "inputs": [
        {
          "internalType": "string",
          "name": "DID",
          "type": "string"
        },
        {
          "internalType": "address",
          "name": "_userAddress",
          "type": "address"
        },
        {
          "internalType": "uint256",
          "name": "_userType",
          "type": "uint256"
        }
      ],
      "name": "bindWallet",
      "outputs": [],
      "stateMutability": "nonpayable",
      "type": "function"
    },
    {
      "inputs": [
        {
          "internalType": "address",
          "name": "org_address",
          "type": "address"
        }
      ],
      "name": "addOrg",
      "outputs": [],
      "stateMutability": "nonpayable",
      "type": "function"
    },
    {
      "inputs": [
        {
          "internalType": "string",
          "name": "DID",
          "type": "string"
        },
        {
          "internalType": "bytes",
          "name": "messageHash",
          "type": "bytes"
        },
        {
          "internalType": "bytes",
          "name": "signature",
          "type": "bytes"
        }
      ],
      "name": "authentication",
      "outputs": [
        {
          "internalType": "bool",
          "name": "",
          "type": "bool"
        }
      ],
      "stateMutability": "view",
      "type": "function",
      "constant": true
    },
    {
      "inputs": [
        {
          "internalType": "address",
          "name": "userAddress",
          "type": "address"
        }
      ],
      "name": "getAccessManagerAddress",
      "outputs": [
        {
          "internalType": "address",
          "name": "",
          "type": "address"
        }
      ],
      "stateMutability": "view",
      "type": "function",
      "constant": true
    },
    {
      "inputs": [],
      "name": "getId",
      "outputs": [
        {
          "internalType": "string",
          "name": "",
          "type": "string"
        }
      ],
      "stateMutability": "view",
      "type": "function",
      "constant": true
    },
    {
      "inputs": [],
      "name": "getUserType",
      "outputs": [
        {
          "internalType": "uint256",
          "name": "",
          "type": "uint256"
        }
      ],
      "stateMutability": "view",
      "type": "function",
      "constant": true
    }
  ],
  "bytecode": "0x608060405234801561000f575f80fd5b50335f806101000a81548173ffffffffffffffffffffffffffffffffffffffff021916908373ffffffffffffffffffffffffffffffffffffffff1602179055506001805f805f9054906101000a900473ffffffffffffffffffffffffffffffffffffffff1673ffffffffffffffffffffffffffffffffffffffff1673ffffffffffffffffffffffffffffffffffffffff1681526020019081526020015f205f6101000a81548160ff021916908315150217905550612b92806100d05f395ff3fe608060405234801561000f575f80fd5b506004361061007b575f3560e01c8063521c022a11610059578063521c022a146100e95780635d1ca631146101195780637341607114610137578063d0bff9fd146101535761007b565b80630f67573b1461007f57806318b8275a146100af57806341990077146100cb575b5f80fd5b61009960048036038101906100949190610e85565b61016f565b6040516100a69190610ebf565b60405180910390f35b6100c960048036038101906100c49190611014565b6101f5565b005b6100d36103dc565b6040516100e09190611073565b60405180910390f35b61010360048036038101906100fe9190611187565b610423565b604051610110919061124a565b60405180910390f35b6101216104dd565b60405161012e91906112dd565b60405180910390f35b610151600480360381019061014c9190610e85565b6105aa565b005b61016d60048036038101906101689190611327565b61068e565b005b5f600260035f8473ffffffffffffffffffffffffffffffffffffffff1673ffffffffffffffffffffffffffffffffffffffff1681526020019081526020015f205f016040516101be919061148c565b90815260200160405180910390205f015f9054906101000a900473ffffffffffffffffffffffffffffffffffffffff169050919050565b5f8054906101000a900473ffffffffffffffffffffffffffffffffffffffff1673ffffffffffffffffffffffffffffffffffffffff163373ffffffffffffffffffffffffffffffffffffffff1614610282576040517f08c379a0000000000000000000000000000000000000000000000000000000008152600401610279906114ec565b60405180910390fd5b600481604051610292919061153a565b90815260200160405180910390205f9054906101000a900460ff166103d95760016004826040516102c3919061153a565b90815260200160405180910390205f6101000a81548160ff0219169083151502179055505f60405180604001604052805f73ffffffffffffffffffffffffffffffffffffffff1681526020015f73ffffffffffffffffffffffffffffffffffffffff1681525090508060028360405161033c919061153a565b90815260200160405180910390205f820151815f015f6101000a81548173ffffffffffffffffffffffffffffffffffffffff021916908373ffffffffffffffffffffffffffffffffffffffff1602179055506020820151816001015f6101000a81548173ffffffffffffffffffffffffffffffffffffffff021916908373ffffffffffffffffffffffffffffffffffffffff160217905550905050505b50565b5f60035f3373ffffffffffffffffffffffffffffffffffffffff1673ffffffffffffffffffffffffffffffffffffffff1681526020019081526020015f2060010154905090565b5f8060028686604051610437929190611574565b90815260200160405180910390206001015f9054906101000a900473ffffffffffffffffffffffffffffffffffffffff1690505f8460405160200161047c919061161a565b6040516020818303038152906040528051906020012090505f8273ffffffffffffffffffffffffffffffffffffffff166104b68387610b45565b73ffffffffffffffffffffffffffffffffffffffff16149050809350505050949350505050565b606060035f3373ffffffffffffffffffffffffffffffffffffffff1673ffffffffffffffffffffffffffffffffffffffff1681526020019081526020015f205f018054610529906113c0565b80601f0160208091040260200160405190810160405280929190818152602001828054610555906113c0565b80156105a05780601f10610577576101008083540402835291602001916105a0565b820191905f5260205f20905b81548152906001019060200180831161058357829003601f168201915b5050505050905090565b5f8054906101000a900473ffffffffffffffffffffffffffffffffffffffff1673ffffffffffffffffffffffffffffffffffffffff163373ffffffffffffffffffffffffffffffffffffffff1614610637576040517f08c379a000000000000000000000000000000000000000000000000000000000815260040161062e906114ec565b60405180910390fd5b6001805f8373ffffffffffffffffffffffffffffffffffffffff1673ffffffffffffffffffffffffffffffffffffffff1681526020019081526020015f205f6101000a81548160ff02191690831515021790555050565b5f8054906101000a900473ffffffffffffffffffffffffffffffffffffffff1673ffffffffffffffffffffffffffffffffffffffff163373ffffffffffffffffffffffffffffffffffffffff161461071b576040517f08c379a0000000000000000000000000000000000000000000000000000000008152600401610712906114ec565b60405180910390fd5b6001151560048460405161072f919061153a565b90815260200160405180910390205f9054906101000a900460ff1615151461078c576040517f08c379a000000000000000000000000000000000000000000000000000000000815260040161078390611685565b60405180910390fd5b5f151560055f8473ffffffffffffffffffffffffffffffffffffffff1673ffffffffffffffffffffffffffffffffffffffff1681526020019081526020015f205f9054906101000a900460ff1615151461081b576040517f08c379a000000000000000000000000000000000000000000000000000000000815260040161081290611713565b60405180910390fd5b5f73ffffffffffffffffffffffffffffffffffffffff16600284604051610842919061153a565b90815260200160405180910390206001015f9054906101000a900473ffffffffffffffffffffffffffffffffffffffff1673ffffffffffffffffffffffffffffffffffffffff16146108c9576040517f08c379a00000000000000000000000000000000000000000000000000000000081526004016108c09061177b565b60405180910390fd5b600160055f8473ffffffffffffffffffffffffffffffffffffffff1673ffffffffffffffffffffffffffffffffffffffff1681526020019081526020015f205f6101000a81548160ff0219169083151502179055508260035f8473ffffffffffffffffffffffffffffffffffffffff1673ffffffffffffffffffffffffffffffffffffffff1681526020019081526020015f205f01908161096a9190611924565b508060035f8473ffffffffffffffffffffffffffffffffffffffff1673ffffffffffffffffffffffffffffffffffffffff1681526020019081526020015f20600101819055505f6040516109bd90610e0d565b604051809103905ff0801580156109d6573d5f803e3d5ffd5b5090508073ffffffffffffffffffffffffffffffffffffffff1663f2fde38b846040518263ffffffff1660e01b8152600401610a129190610ebf565b5f604051808303815f87803b158015610a29575f80fd5b505af1158015610a3b573d5f803e3d5ffd5b505050508073ffffffffffffffffffffffffffffffffffffffff167fe33f3ff1d8adbdf9f754db222d3abd75e67768a7a717da51c911e264bfbb3f8760405160405180910390a280600285604051610a93919061153a565b90815260200160405180910390205f015f6101000a81548173ffffffffffffffffffffffffffffffffffffffff021916908373ffffffffffffffffffffffffffffffffffffffff16021790555082600285604051610af1919061153a565b90815260200160405180910390206001015f6101000a81548173ffffffffffffffffffffffffffffffffffffffff021916908373ffffffffffffffffffffffffffffffffffffffff16021790555050505050565b5f805f80610b538686610b6f565b925092509250610b638282610bc4565b82935050505092915050565b5f805f6041845103610baf575f805f602087015192506040870151915060608701515f1a9050610ba188828585610d26565b955095509550505050610bbd565b5f600285515f1b9250925092505b9250925092565b5f6003811115610bd757610bd66119f3565b5b826003811115610bea57610be96119f3565b5b0315610d225760016003811115610c0457610c036119f3565b5b826003811115610c1757610c166119f3565b5b03610c4e576040517ff645eedf00000000000000000000000000000000000000000000000000000000815260040160405180910390fd5b60026003811115610c6257610c616119f3565b5b826003811115610c7557610c746119f3565b5b03610cb957805f1c6040517ffce698f7000000000000000000000000000000000000000000000000000000008152600401610cb09190611073565b60405180910390fd5b600380811115610ccc57610ccb6119f3565b5b826003811115610cdf57610cde6119f3565b5b03610d2157806040517fd78bce0c000000000000000000000000000000000000000000000000000000008152600401610d189190611a38565b60405180910390fd5b5b5050565b5f805f7f7fffffffffffffffffffffffffffffff5d576e7357a4501ddfe92f46681b20a0845f1c1115610d62575f600385925092509250610e03565b5f6001888888886040515f8152602001604052604051610d859493929190611a6c565b6020604051602081039080840390855afa158015610da5573d5f803e3d5ffd5b5050506020604051035190505f73ffffffffffffffffffffffffffffffffffffffff168173ffffffffffffffffffffffffffffffffffffffff1603610df6575f60015f801b93509350935050610e03565b805f805f1b935093509350505b9450945094915050565b6110ad80611ab083390190565b5f604051905090565b5f80fd5b5f80fd5b5f73ffffffffffffffffffffffffffffffffffffffff82169050919050565b5f610e5482610e2b565b9050919050565b610e6481610e4a565b8114610e6e575f80fd5b50565b5f81359050610e7f81610e5b565b92915050565b5f60208284031215610e9a57610e99610e23565b5b5f610ea784828501610e71565b91505092915050565b610eb981610e4a565b82525050565b5f602082019050610ed25f830184610eb0565b92915050565b5f80fd5b5f80fd5b5f601f19601f8301169050919050565b7f4e487b71000000000000000000000000000000000000000000000000000000005f52604160045260245ffd5b610f2682610ee0565b810181811067ffffffffffffffff82111715610f4557610f44610ef0565b5b80604052505050565b5f610f57610e1a565b9050610f638282610f1d565b919050565b5f67ffffffffffffffff821115610f8257610f81610ef0565b5b610f8b82610ee0565b9050602081019050919050565b828183375f83830152505050565b5f610fb8610fb384610f68565b610f4e565b905082815260208101848484011115610fd457610fd3610edc565b5b610fdf848285610f98565b509392505050565b5f82601f830112610ffb57610ffa610ed8565b5b813561100b848260208601610fa6565b91505092915050565b5f6020828403121561102957611028610e23565b5b5f82013567ffffffffffffffff81111561104657611045610e27565b5b61105284828501610fe7565b91505092915050565b5f819050919050565b61106d8161105b565b82525050565b5f6020820190506110865f830184611064565b92915050565b5f80fd5b5f80fd5b5f8083601f8401126110a9576110a8610ed8565b5b8235905067ffffffffffffffff8111156110c6576110c561108c565b5b6020830191508360018202830111156110e2576110e1611090565b5b9250929050565b5f67ffffffffffffffff82111561110357611102610ef0565b5b61110c82610ee0565b9050602081019050919050565b5f61112b611126846110e9565b610f4e565b90508281526020810184848401111561114757611146610edc565b5b611152848285610f98565b509392505050565b5f82601f83011261116e5761116d610ed8565b5b813561117e848260208601611119565b91505092915050565b5f805f806060858703121561119f5761119e610e23565b5b5f85013567ffffffffffffffff8111156111bc576111bb610e27565b5b6111c887828801611094565b9450945050602085013567ffffffffffffffff8111156111eb576111ea610e27565b5b6111f78782880161115a565b925050604085013567ffffffffffffffff81111561121857611217610e27565b5b6112248782880161115a565b91505092959194509250565b5f8115159050919050565b61124481611230565b82525050565b5f60208201905061125d5f83018461123b565b92915050565b5f81519050919050565b5f82825260208201905092915050565b5f5b8381101561129a57808201518184015260208101905061127f565b5f8484015250505050565b5f6112af82611263565b6112b9818561126d565b93506112c981856020860161127d565b6112d281610ee0565b840191505092915050565b5f6020820190508181035f8301526112f581846112a5565b905092915050565b6113068161105b565b8114611310575f80fd5b50565b5f81359050611321816112fd565b92915050565b5f805f6060848603121561133e5761133d610e23565b5b5f84013567ffffffffffffffff81111561135b5761135a610e27565b5b61136786828701610fe7565b935050602061137886828701610e71565b925050604061138986828701611313565b9150509250925092565b7f4e487b71000000000000000000000000000000000000000000000000000000005f52602260045260245ffd5b5f60028204905060018216806113d757607f821691505b6020821081036113ea576113e9611393565b5b50919050565b5f81905092915050565b5f819050815f5260205f209050919050565b5f8154611418816113c0565b61142281866113f0565b9450600182165f811461143c576001811461145157611483565b60ff1983168652811515820286019350611483565b61145a856113fa565b5f5b8381101561147b5781548189015260018201915060208101905061145c565b838801955050505b50505092915050565b5f611497828461140c565b915081905092915050565b7f4f6e6c792041646d696e6973747261746f722063616e2063616c6c2e000000005f82015250565b5f6114d6601c8361126d565b91506114e1826114a2565b602082019050919050565b5f6020820190508181035f830152611503816114ca565b9050919050565b5f61151482611263565b61151e81856113f0565b935061152e81856020860161127d565b80840191505092915050565b5f611545828461150a565b915081905092915050565b5f61155b83856113f0565b9350611568838584610f98565b82840190509392505050565b5f611580828486611550565b91508190509392505050565b7f19457468657265756d205369676e6564204d6573736167653a0a3332000000005f82015250565b5f6115c0601c836113f0565b91506115cb8261158c565b601c82019050919050565b5f81519050919050565b5f81905092915050565b5f6115f4826115d6565b6115fe81856115e0565b935061160e81856020860161127d565b80840191505092915050565b5f611624826115b4565b915061163082846115ea565b915081905092915050565b7f44494420776173206e6f742072657367697374212100000000000000000000005f82015250565b5f61166f60158361126d565b915061167a8261163b565b602082019050919050565b5f6020820190508181035f83015261169c81611663565b9050919050565b7f5468652075736572416464726573732077617320626f756e64206265666f72655f8201527f2121000000000000000000000000000000000000000000000000000000000000602082015250565b5f6116fd60228361126d565b9150611708826116a3565b604082019050919050565b5f6020820190508181035f83015261172a816116f1565b9050919050565b7f44494420616c726561647920626f756e642121000000000000000000000000005f82015250565b5f61176560138361126d565b915061177082611731565b602082019050919050565b5f6020820190508181035f83015261179281611759565b9050919050565b5f6020601f8301049050919050565b5f82821b905092915050565b5f600883026117e37fffffffffffffffffffffffffffffffffffffffffffffffffffffffffffffffff826117a8565b6117ed86836117a8565b95508019841693508086168417925050509392505050565b5f819050919050565b5f61182861182361181e8461105b565b611805565b61105b565b9050919050565b5f819050919050565b6118418361180e565b61185561184d8261182f565b8484546117b4565b825550505050565b5f90565b61186961185d565b611874818484611838565b505050565b5b818110156118975761188c5f82611861565b60018101905061187a565b5050565b601f8211156118dc576118ad816113fa565b6118b684611799565b810160208510156118c5578190505b6118d96118d185611799565b830182611879565b50505b505050565b5f82821c905092915050565b5f6118fc5f19846008026118e1565b1980831691505092915050565b5f61191483836118ed565b9150826002028217905092915050565b61192d82611263565b67ffffffffffffffff81111561194657611945610ef0565b5b61195082546113c0565b61195b82828561189b565b5f60209050601f83116001811461198c575f841561197a578287015190505b6119848582611909565b8655506119eb565b601f19841661199a866113fa565b5f5b828110156119c15784890151825560018201915060208501945060208101905061199c565b868310156119de57848901516119da601f8916826118ed565b8355505b6001600288020188555050505b505050505050565b7f4e487b71000000000000000000000000000000000000000000000000000000005f52602160045260245ffd5b5f819050919050565b611a3281611a20565b82525050565b5f602082019050611a4b5f830184611a29565b92915050565b5f60ff82169050919050565b611a6681611a51565b82525050565b5f608082019050611a7f5f830187611a29565b611a8c6020830186611a5d565b611a996040830185611a29565b611aa66060830184611a29565b9594505050505056fe608060405234801561000f575f80fd5b505f339050805f806101000a81548173ffffffffffffffffffffffffffffffffffffffff021916908373ffffffffffffffffffffffffffffffffffffffff1602179055508060015f6101000a81548173ffffffffffffffffffffffffffffffffffffffff021916908373ffffffffffffffffffffffffffffffffffffffff1602179055508073ffffffffffffffffffffffffffffffffffffffff165f73ffffffffffffffffffffffffffffffffffffffff167f8be0079c531659141344cd1fd0a4f28419497f9722a3daafe3b4186f6b6457e060405160405180910390a350610fb2806100fb5f395ff3fe608060405234801561000f575f80fd5b506004361061007b575f3560e01c8063b4a99a4e11610059578063b4a99a4e146100d7578063e06d8718146100f5578063e8e632f514610125578063f2fde38b146101555761007b565b80635c3b58c01461007f5780638553c4e81461009d57806390a82ca9146100bb575b5f80fd5b610087610171565b6040516100949190610803565b60405180910390f35b6100a56102ba565b6040516100b29190610862565b60405180910390f35b6100d560048036038101906100d091906108e4565b6102e2565b005b6100df610396565b6040516100ec9190610862565b60405180910390f35b61010f600480360381019061010a91906108e4565b6103bd565b60405161011c9190610977565b60405180910390f35b61013f600480360381019061013a9190610997565b61046e565b60405161014c9190610a2f565b60405180910390f35b61016f600480360381019061016a9190610a72565b610520565b005b60603373ffffffffffffffffffffffffffffffffffffffff16610192610396565b73ffffffffffffffffffffffffffffffffffffffff16146101e8576040517f08c379a00000000000000000000000000000000000000000000000000000000081526004016101df90610ae7565b60405180910390fd5b6002805480602002602001604051908101604052809291908181526020015f905b828210156102b1578382905f5260205f2001805461022690610b32565b80601f016020809104026020016040519081016040528092919081815260200182805461025290610b32565b801561029d5780601f106102745761010080835404028352916020019161029d565b820191905f5260205f20905b81548152906001019060200180831161028057829003601f168201915b505050505081526020019060010190610209565b50505050905090565b5f60015f9054906101000a900473ffffffffffffffffffffffffffffffffffffffff16905090565b3373ffffffffffffffffffffffffffffffffffffffff166103016102ba565b73ffffffffffffffffffffffffffffffffffffffff1614610357576040517f08c379a000000000000000000000000000000000000000000000000000000000815260040161034e90610bd2565b60405180910390fd5b6002828290918060018154018082558091505060019003905f5260205f20015f909192909192909192909192509182610391929190610dcd565b505050565b5f805f9054906101000a900473ffffffffffffffffffffffffffffffffffffffff16905090565b6060600383836040516103d1929190610ed6565b908152602001604051809103902080546103ea90610b32565b80601f016020809104026020016040519081016040528092919081815260200182805461041690610b32565b80156104615780601f1061043857610100808354040283529160200191610461565b820191905f5260205f20905b81548152906001019060200180831161044457829003601f168201915b5050505050905092915050565b5f3373ffffffffffffffffffffffffffffffffffffffff1661048e610396565b73ffffffffffffffffffffffffffffffffffffffff16146104e4576040517f08c379a00000000000000000000000000000000000000000000000000000000081526004016104db90610ae7565b60405180910390fd5b8282600387876040516104f8929190610ed6565b90815260200160405180910390209182610513929190610dcd565b5060019050949350505050565b3373ffffffffffffffffffffffffffffffffffffffff1661053f610396565b73ffffffffffffffffffffffffffffffffffffffff1614610595576040517f08c379a000000000000000000000000000000000000000000000000000000000815260040161058c90610ae7565b60405180910390fd5b5f73ffffffffffffffffffffffffffffffffffffffff168173ffffffffffffffffffffffffffffffffffffffff1603610603576040517f08c379a00000000000000000000000000000000000000000000000000000000081526004016105fa90610f5e565b60405180910390fd5b8073ffffffffffffffffffffffffffffffffffffffff165f8054906101000a900473ffffffffffffffffffffffffffffffffffffffff1673ffffffffffffffffffffffffffffffffffffffff167f8be0079c531659141344cd1fd0a4f28419497f9722a3daafe3b4186f6b6457e060405160405180910390a3805f806101000a81548173ffffffffffffffffffffffffffffffffffffffff021916908373ffffffffffffffffffffffffffffffffffffffff16021790555050565b5f81519050919050565b5f82825260208201905092915050565b5f819050602082019050919050565b5f81519050919050565b5f82825260208201905092915050565b5f5b8381101561071e578082015181840152602081019050610703565b5f8484015250505050565b5f601f19601f8301169050919050565b5f610743826106e7565b61074d81856106f1565b935061075d818560208601610701565b61076681610729565b840191505092915050565b5f61077c8383610739565b905092915050565b5f602082019050919050565b5f61079a826106be565b6107a481856106c8565b9350836020820285016107b6856106d8565b805f5b858110156107f157848403895281516107d28582610771565b94506107dd83610784565b925060208a019950506001810190506107b9565b50829750879550505050505092915050565b5f6020820190508181035f83015261081b8184610790565b905092915050565b5f73ffffffffffffffffffffffffffffffffffffffff82169050919050565b5f61084c82610823565b9050919050565b61085c81610842565b82525050565b5f6020820190506108755f830184610853565b92915050565b5f80fd5b5f80fd5b5f80fd5b5f80fd5b5f80fd5b5f8083601f8401126108a4576108a3610883565b5b8235905067ffffffffffffffff8111156108c1576108c0610887565b5b6020830191508360018202830111156108dd576108dc61088b565b5b9250929050565b5f80602083850312156108fa576108f961087b565b5b5f83013567ffffffffffffffff8111156109175761091661087f565b5b6109238582860161088f565b92509250509250929050565b5f82825260208201905092915050565b5f610949826106e7565b610953818561092f565b9350610963818560208601610701565b61096c81610729565b840191505092915050565b5f6020820190508181035f83015261098f818461093f565b905092915050565b5f805f80604085870312156109af576109ae61087b565b5b5f85013567ffffffffffffffff8111156109cc576109cb61087f565b5b6109d88782880161088f565b9450945050602085013567ffffffffffffffff8111156109fb576109fa61087f565b5b610a078782880161088f565b925092505092959194509250565b5f8115159050919050565b610a2981610a15565b82525050565b5f602082019050610a425f830184610a20565b92915050565b610a5181610842565b8114610a5b575f80fd5b50565b5f81359050610a6c81610a48565b92915050565b5f60208284031215610a8757610a8661087b565b5b5f610a9484828501610a5e565b91505092915050565b7f4f776e61626c653a2063616c6c6572206973206e6f7420746865206f776e65725f82015250565b5f610ad160208361092f565b9150610adc82610a9d565b602082019050919050565b5f6020820190508181035f830152610afe81610ac5565b9050919050565b7f4e487b71000000000000000000000000000000000000000000000000000000005f52602260045260245ffd5b5f6002820490506001821680610b4957607f821691505b602082108103610b5c57610b5b610b05565b5b50919050565b7f53757065727669736f7261626c653a2063616c6c6572206973206e6f742074685f8201527f652073757065727669736f720000000000000000000000000000000000000000602082015250565b5f610bbc602c8361092f565b9150610bc782610b62565b604082019050919050565b5f6020820190508181035f830152610be981610bb0565b9050919050565b5f82905092915050565b7f4e487b71000000000000000000000000000000000000000000000000000000005f52604160045260245ffd5b5f819050815f5260205f209050919050565b5f6020601f8301049050919050565b5f82821b905092915050565b5f60088302610c837fffffffffffffffffffffffffffffffffffffffffffffffffffffffffffffffff82610c48565b610c8d8683610c48565b95508019841693508086168417925050509392505050565b5f819050919050565b5f819050919050565b5f610cd1610ccc610cc784610ca5565b610cae565b610ca5565b9050919050565b5f819050919050565b610cea83610cb7565b610cfe610cf682610cd8565b848454610c54565b825550505050565b5f90565b610d12610d06565b610d1d818484610ce1565b505050565b5b81811015610d4057610d355f82610d0a565b600181019050610d23565b5050565b601f821115610d8557610d5681610c27565b610d5f84610c39565b81016020851015610d6e578190505b610d82610d7a85610c39565b830182610d22565b50505b505050565b5f82821c905092915050565b5f610da55f1984600802610d8a565b1980831691505092915050565b5f610dbd8383610d96565b9150826002028217905092915050565b610dd78383610bf0565b67ffffffffffffffff811115610df057610def610bfa565b5b610dfa8254610b32565b610e05828285610d44565b5f601f831160018114610e32575f8415610e20578287013590505b610e2a8582610db2565b865550610e91565b601f198416610e4086610c27565b5f5b82811015610e6757848901358255600182019150602085019450602081019050610e42565b86831015610e845784890135610e80601f891682610d96565b8355505b6001600288020188555050505b50505050505050565b5f81905092915050565b828183375f83830152505050565b5f610ebd8385610e9a565b9350610eca838584610ea4565b82840190509392505050565b5f610ee2828486610eb2565b91508190509392505050565b7f4f776e61626c653a206e6577206f776e657220697320746865207a65726f20615f8201527f6464726573730000000000000000000000000000000000000000000000000000602082015250565b5f610f4860268361092f565b9150610f5382610eee565b604082019050919050565b5f6020820190508181035f830152610f7581610f3c565b905091905056fea26469706673582212203bdfe68172f8f7c39c2a42d87cc31b20523be9fddff1a2b4382b49ed308027e864736f6c63430008140033a26469706673582212207bf531c03e9f90d6bdd434472725b60dc4a756aa81716ab4bb61f1baf20d707e64736f6c63430008140033",
  "immutableReferences": {},
  "source": "//SPDX-License-Identifier: MIT\n// pragma solidity >=0.4.22 <=0.8.20;\npragma solidity ^0.8.0;\nimport \"./PersonalIdentity.sol\";\nimport \"@openzeppelin/contracts/utils/cryptography/ECDSA.sol\";\n// import \"@openzeppelin/contracts/utils/Address.sol\";\n// import \"@openzeppelin/contracts/utils/cryptography/MessageHashUtils.sol\";\npragma experimental ABIEncoderV2;\n\ncontract IdentityManager {\n    using ECDSA for bytes32;\n    // using Address for address;\n    // using MessageHashUtils for bytes32;\n    constructor() {\n        admin = msg.sender ;\n        Orgs[admin] = true ;\n    }\n    modifier onlyOrg {\n        require(Orgs[msg.sender],\"Only Organization can call.\");\n        _;\n    }\n\n    modifier onlyAdmin {\n        require(msg.sender == admin, \"Only Administrator can call.\");\n        _; \n    }\n\n    event ContractCreate(address indexed contractAddress);\n\n    struct UserInfo {\n        address personalIdentityAddress; // address of access control manager \n        address userAddress;             // binding addrss, this also is user's public key\n    } // Userinfo\n\n    struct BindInfo {\n        string DID;  // user DID\n        uint userType; // usertype\n    } // BingInfo\n\n    address admin ;\n    mapping(address => bool) Orgs ;\n    mapping(string => UserInfo) IdentityInfo ; // DID map to userinfo\n    mapping(address => BindInfo) BindingInfo ; // wallet address map to DID\n    mapping(string => bool) RegistDID ; // Record the regist DID\n    mapping(address => bool) RegistAddress ; // Record the regist wallet address\n    // mapping(string => string ) private NationalIdList; // the record of NationalId and DID\n\n    function addUser(string memory DID) external onlyAdmin{\n        if( !RegistDID[DID] ) {\n            RegistDID[DID] = true ;\n            UserInfo memory info = UserInfo(\n                                        address(0),\n                                        address(0)\n                                    ) ;\n            IdentityInfo[DID] = info ;\n        } // if \n        \n    } // addUser()\n\n    function bindWallet(string memory DID, address _userAddress, uint _userType) external onlyAdmin {\n      require(RegistDID[DID] == true, \"DID was not resgist!!\") ; // DID need to be register first\n      require(RegistAddress[_userAddress] == false, \"The userAddress was bound before!!\") ; // _userAddress can not be bound before\n      require(IdentityInfo[DID].userAddress == address(0), \"DID already bound!!\") ; // bound DID can not bind again\n      \n      RegistAddress[_userAddress] = true ;\n      BindingInfo[_userAddress].DID = DID ;\n      BindingInfo[_userAddress].userType = _userType ;\n      // create contract and transfer ownership to user himself\n      PersonalIdentity personalIdentity = new PersonalIdentity() ;\n      personalIdentity.transferOwnership(_userAddress) ;\n      emit ContractCreate(address(personalIdentity));\n        \n      // update user info\n      IdentityInfo[DID].personalIdentityAddress = address(personalIdentity) ;\n      IdentityInfo[DID].userAddress = _userAddress ;\n\n    } // bindWallet()\n\n    function addOrg(address org_address) external onlyAdmin {\n      Orgs[org_address] = true ; \n    } // addOrg()\n\n    function authentication(string calldata DID, \n                            bytes memory messageHash,\n                            bytes memory signature) external view returns(bool) {\n      address expectedSigner = IdentityInfo[DID].userAddress ;\n      bytes32 ethSignedMessageHash = keccak256(\n        abi.encodePacked(\"\\x19Ethereum Signed Message:\\n32\", messageHash)\n      );\n      bool res = ECDSA.recover(ethSignedMessageHash, signature) == expectedSigner;\n    //   if (res) {\n    //     address addr = IdentityInfo[DID].personalIdentityAddress ;\n    //     PersonalIdentity(addr).set_app(app);\n    //   } // if \n      return res ;\n    } // authentication()\n\n    function getAccessManagerAddress(address userAddress) external view returns (address) {\n        return IdentityInfo[BindingInfo[userAddress].DID].personalIdentityAddress ;\n    } // getAccessManagerAddress() helper function\n\n    function getId() external view returns (string memory) {\n        return BindingInfo[msg.sender].DID ;\n    } // getId() helper function\n\n    function getUserType() external view returns (uint){\n        return BindingInfo[msg.sender].userType ; \n    } // getUserType() helper function\n}\n",
  "sourcePath": "/home/henry/EMR-sharing-Dapp/did-chain/contracts/IdentityManager.sol",
  "compiler": {
    "name": "solc",
    "version": "0.8.20+commit.a1b79de6.Emscripten.clang"
  },
  "schemaVersion": "3.4.16",
  "updatedAt": "2024-05-03T15:35:50.700Z",
  "networkType": "ethereum",
  "devdoc": {
    "errors": {
      "ECDSAInvalidSignature()": [
        {
          "details": "The signature derives the `address(0)`."
        }
      ],
      "ECDSAInvalidSignatureLength(uint256)": [
        {
          "details": "The signature has an invalid length."
        }
      ],
      "ECDSAInvalidSignatureS(bytes32)": [
        {
          "details": "The signature has an S value that is in the upper half order."
        }
      ]
    },
    "kind": "dev",
    "methods": {},
    "version": 1
  },
  "userdoc": {
    "kind": "user",
    "methods": {},
    "version": 1
  }
}