{
  "contractName": "IdentityManager",
  "abi": [
    {
      "inputs": [],
      "stateMutability": "nonpayable",
      "type": "constructor"
    },
    {
      "inputs": [
        {
          "internalType": "string",
          "name": "DID",
          "type": "string"
        }
      ],
      "name": "addUser",
      "outputs": [],
      "stateMutability": "nonpayable",
      "type": "function"
    },
    {
      "inputs": [
        {
          "internalType": "string",
          "name": "DID",
          "type": "string"
        },
        {
          "internalType": "address",
          "name": "_userAddress",
          "type": "address"
        },
        {
          "internalType": "uint256",
          "name": "_userType",
          "type": "uint256"
        }
      ],
      "name": "bindWallet",
      "outputs": [],
      "stateMutability": "nonpayable",
      "type": "function"
    },
    {
      "inputs": [
        {
          "internalType": "address",
          "name": "org_address",
          "type": "address"
        }
      ],
      "name": "addOrg",
      "outputs": [],
      "stateMutability": "nonpayable",
      "type": "function"
    },
    {
      "inputs": [
        {
          "internalType": "address",
          "name": "userAddress",
          "type": "address"
        }
      ],
      "name": "getAccessManagerAddress",
      "outputs": [
        {
          "internalType": "address",
          "name": "",
          "type": "address"
        }
      ],
      "stateMutability": "view",
      "type": "function",
      "constant": true
    },
    {
      "inputs": [],
      "name": "getId",
      "outputs": [
        {
          "internalType": "string",
          "name": "",
          "type": "string"
        }
      ],
      "stateMutability": "view",
      "type": "function",
      "constant": true
    },
    {
      "inputs": [],
      "name": "getUserType",
      "outputs": [
        {
          "internalType": "uint256",
          "name": "",
          "type": "uint256"
        }
      ],
      "stateMutability": "view",
      "type": "function",
      "constant": true
    }
  ],
  "bytecode": "0x608060405234801561001057600080fd5b50336000806101000a81548173ffffffffffffffffffffffffffffffffffffffff021916908373ffffffffffffffffffffffffffffffffffffffff16021790555060018060008060009054906101000a900473ffffffffffffffffffffffffffffffffffffffff1673ffffffffffffffffffffffffffffffffffffffff1673ffffffffffffffffffffffffffffffffffffffff16815260200190815260200160002060006101000a81548160ff021916908315150217905550611ff7806100d86000396000f3fe608060405234801561001057600080fd5b50600436106100625760003560e01c80630f67573b1461006757806318b8275a1461009757806341990077146100b35780635d1ca631146100d157806373416071146100ef578063d0bff9fd1461010b575b600080fd5b610081600480360381019061007c9190610b61565b610127565b60405161008e9190610b9d565b60405180910390f35b6100b160048036038101906100ac9190610cfe565b6101b3565b005b6100bb6103a4565b6040516100c89190610d60565b60405180910390f35b6100d96103ee565b6040516100e69190610e03565b60405180910390f35b61010960048036038101906101049190610b61565b6104c0565b005b61012560048036038101906101209190610e51565b6105a8565b005b60006002600360008473ffffffffffffffffffffffffffffffffffffffff1673ffffffffffffffffffffffffffffffffffffffff16815260200190815260200160002060000160405161017a9190610fbf565b908152602001604051809103902060000160009054906101000a900473ffffffffffffffffffffffffffffffffffffffff169050919050565b60008054906101000a900473ffffffffffffffffffffffffffffffffffffffff1673ffffffffffffffffffffffffffffffffffffffff163373ffffffffffffffffffffffffffffffffffffffff1614610241576040517f08c379a000000000000000000000000000000000000000000000000000000000815260040161023890611022565b60405180910390fd5b6004816040516102519190611073565b908152602001604051809103902060009054906101000a900460ff166103a15760016004826040516102839190611073565b908152602001604051809103902060006101000a81548160ff02191690831515021790555060006040518060400160405280600073ffffffffffffffffffffffffffffffffffffffff168152602001600073ffffffffffffffffffffffffffffffffffffffff168152509050806002836040516103009190611073565b908152602001604051809103902060008201518160000160006101000a81548173ffffffffffffffffffffffffffffffffffffffff021916908373ffffffffffffffffffffffffffffffffffffffff16021790555060208201518160010160006101000a81548173ffffffffffffffffffffffffffffffffffffffff021916908373ffffffffffffffffffffffffffffffffffffffff160217905550905050505b50565b6000600360003373ffffffffffffffffffffffffffffffffffffffff1673ffffffffffffffffffffffffffffffffffffffff16815260200190815260200160002060010154905090565b6060600360003373ffffffffffffffffffffffffffffffffffffffff1673ffffffffffffffffffffffffffffffffffffffff168152602001908152602001600020600001805461043d90610eef565b80601f016020809104026020016040519081016040528092919081815260200182805461046990610eef565b80156104b65780601f1061048b576101008083540402835291602001916104b6565b820191906000526020600020905b81548152906001019060200180831161049957829003601f168201915b5050505050905090565b60008054906101000a900473ffffffffffffffffffffffffffffffffffffffff1673ffffffffffffffffffffffffffffffffffffffff163373ffffffffffffffffffffffffffffffffffffffff161461054e576040517f08c379a000000000000000000000000000000000000000000000000000000000815260040161054590611022565b60405180910390fd5b60018060008373ffffffffffffffffffffffffffffffffffffffff1673ffffffffffffffffffffffffffffffffffffffff16815260200190815260200160002060006101000a81548160ff02191690831515021790555050565b60008054906101000a900473ffffffffffffffffffffffffffffffffffffffff1673ffffffffffffffffffffffffffffffffffffffff163373ffffffffffffffffffffffffffffffffffffffff1614610636576040517f08c379a000000000000000000000000000000000000000000000000000000000815260040161062d90611022565b60405180910390fd5b6001151560048460405161064a9190611073565b908152602001604051809103902060009054906101000a900460ff161515146106a8576040517f08c379a000000000000000000000000000000000000000000000000000000000815260040161069f906110d6565b60405180910390fd5b60001515600560008473ffffffffffffffffffffffffffffffffffffffff1673ffffffffffffffffffffffffffffffffffffffff16815260200190815260200160002060009054906101000a900460ff1615151461073b576040517f08c379a000000000000000000000000000000000000000000000000000000000815260040161073290611168565b60405180910390fd5b600073ffffffffffffffffffffffffffffffffffffffff166002846040516107639190611073565b908152602001604051809103902060010160009054906101000a900473ffffffffffffffffffffffffffffffffffffffff1673ffffffffffffffffffffffffffffffffffffffff16146107eb576040517f08c379a00000000000000000000000000000000000000000000000000000000081526004016107e2906111d4565b60405180910390fd5b6001600560008473ffffffffffffffffffffffffffffffffffffffff1673ffffffffffffffffffffffffffffffffffffffff16815260200190815260200160002060006101000a81548160ff02191690831515021790555082600360008473ffffffffffffffffffffffffffffffffffffffff1673ffffffffffffffffffffffffffffffffffffffff1681526020019081526020016000206000019080519060200190610899929190610a3f565b5080600360008473ffffffffffffffffffffffffffffffffffffffff1673ffffffffffffffffffffffffffffffffffffffff1681526020019081526020016000206001018190555060006040516108ef90610ac5565b604051809103906000f08015801561090b573d6000803e3d6000fd5b5090508073ffffffffffffffffffffffffffffffffffffffff1663f2fde38b846040518263ffffffff1660e01b81526004016109479190610b9d565b600060405180830381600087803b15801561096157600080fd5b505af1158015610975573d6000803e3d6000fd5b505050508060028560405161098a9190611073565b908152602001604051809103902060000160006101000a81548173ffffffffffffffffffffffffffffffffffffffff021916908373ffffffffffffffffffffffffffffffffffffffff160217905550826002856040516109ea9190611073565b908152602001604051809103902060010160006101000a81548173ffffffffffffffffffffffffffffffffffffffff021916908373ffffffffffffffffffffffffffffffffffffffff16021790555050505050565b828054610a4b90610eef565b90600052602060002090601f016020900481019282610a6d5760008555610ab4565b82601f10610a8657805160ff1916838001178555610ab4565b82800160010185558215610ab4579182015b82811115610ab3578251825591602001919060010190610a98565b5b509050610ac19190610ad2565b5090565b610dcd806111f583390190565b5b80821115610aeb576000816000905550600101610ad3565b5090565b6000604051905090565b600080fd5b600080fd5b600073ffffffffffffffffffffffffffffffffffffffff82169050919050565b6000610b2e82610b03565b9050919050565b610b3e81610b23565b8114610b4957600080fd5b50565b600081359050610b5b81610b35565b92915050565b600060208284031215610b7757610b76610af9565b5b6000610b8584828501610b4c565b91505092915050565b610b9781610b23565b82525050565b6000602082019050610bb26000830184610b8e565b92915050565b600080fd5b600080fd5b6000601f19601f8301169050919050565b7f4e487b7100000000000000000000000000000000000000000000000000000000600052604160045260246000fd5b610c0b82610bc2565b810181811067ffffffffffffffff82111715610c2a57610c29610bd3565b5b80604052505050565b6000610c3d610aef565b9050610c498282610c02565b919050565b600067ffffffffffffffff821115610c6957610c68610bd3565b5b610c7282610bc2565b9050602081019050919050565b82818337600083830152505050565b6000610ca1610c9c84610c4e565b610c33565b905082815260208101848484011115610cbd57610cbc610bbd565b5b610cc8848285610c7f565b509392505050565b600082601f830112610ce557610ce4610bb8565b5b8135610cf5848260208601610c8e565b91505092915050565b600060208284031215610d1457610d13610af9565b5b600082013567ffffffffffffffff811115610d3257610d31610afe565b5b610d3e84828501610cd0565b91505092915050565b6000819050919050565b610d5a81610d47565b82525050565b6000602082019050610d756000830184610d51565b92915050565b600081519050919050565b600082825260208201905092915050565b60005b83811015610db5578082015181840152602081019050610d9a565b83811115610dc4576000848401525b50505050565b6000610dd582610d7b565b610ddf8185610d86565b9350610def818560208601610d97565b610df881610bc2565b840191505092915050565b60006020820190508181036000830152610e1d8184610dca565b905092915050565b610e2e81610d47565b8114610e3957600080fd5b50565b600081359050610e4b81610e25565b92915050565b600080600060608486031215610e6a57610e69610af9565b5b600084013567ffffffffffffffff811115610e8857610e87610afe565b5b610e9486828701610cd0565b9350506020610ea586828701610b4c565b9250506040610eb686828701610e3c565b9150509250925092565b7f4e487b7100000000000000000000000000000000000000000000000000000000600052602260045260246000fd5b60006002820490506001821680610f0757607f821691505b602082108103610f1a57610f19610ec0565b5b50919050565b600081905092915050565b60008190508160005260206000209050919050565b60008154610f4d81610eef565b610f578186610f20565b94506001821660008114610f725760018114610f8357610fb6565b60ff19831686528186019350610fb6565b610f8c85610f2b565b60005b83811015610fae57815481890152600182019150602081019050610f8f565b838801955050505b50505092915050565b6000610fcb8284610f40565b915081905092915050565b7f4f6e6c792041646d696e6973747261746f722063616e2063616c6c2e00000000600082015250565b600061100c601c83610d86565b915061101782610fd6565b602082019050919050565b6000602082019050818103600083015261103b81610fff565b9050919050565b600061104d82610d7b565b6110578185610f20565b9350611067818560208601610d97565b80840191505092915050565b600061107f8284611042565b915081905092915050565b7f44494420776173206e6f74207265736769737421210000000000000000000000600082015250565b60006110c0601583610d86565b91506110cb8261108a565b602082019050919050565b600060208201905081810360008301526110ef816110b3565b9050919050565b7f5468652075736572416464726573732077617320626f756e64206265666f726560008201527f2121000000000000000000000000000000000000000000000000000000000000602082015250565b6000611152602283610d86565b915061115d826110f6565b604082019050919050565b6000602082019050818103600083015261118181611145565b9050919050565b7f44494420616c726561647920626f756e64212100000000000000000000000000600082015250565b60006111be601383610d86565b91506111c982611188565b602082019050919050565b600060208201905081810360008301526111ed816111b1565b905091905056fe608060405234801561001057600080fd5b506000339050806000806101000a81548173ffffffffffffffffffffffffffffffffffffffff021916908373ffffffffffffffffffffffffffffffffffffffff1602179055508073ffffffffffffffffffffffffffffffffffffffff16600073ffffffffffffffffffffffffffffffffffffffff167f8be0079c531659141344cd1fd0a4f28419497f9722a3daafe3b4186f6b6457e060405160405180910390a350610d0c806100c16000396000f3fe608060405234801561001057600080fd5b50600436106100575760003560e01c80638a1193361461005c5780638da5cb5b14610078578063e8e632f514610096578063ef2b47cb146100b2578063f2fde38b146100e2575b600080fd5b610076600480360381019061007191906107ec565b6100fe565b005b6100806101e6565b60405161008d9190610886565b60405180910390f35b6100b060048036038101906100ab9190610901565b61020f565b005b6100cc60048036038101906100c79190610982565b6102ba565b6040516100d99190610a53565b60405180910390f35b6100fc60048036038101906100f79190610a75565b61036a565b005b3373ffffffffffffffffffffffffffffffffffffffff1661011d6101e6565b73ffffffffffffffffffffffffffffffffffffffff1614610173576040517f08c379a000000000000000000000000000000000000000000000000000000000815260040161016a90610aee565b60405180910390fd5b806001846040516101849190610b4a565b908152602001604051809103902090805190602001906101a592919061050b565b507fd78e300afdee35775c631df9bdd9fc0be7bdce285fbb384b46d47f6d9d4fd3118383836040516101d993929190610b61565b60405180910390a1505050565b60008060009054906101000a900473ffffffffffffffffffffffffffffffffffffffff16905090565b3373ffffffffffffffffffffffffffffffffffffffff1661022e6101e6565b73ffffffffffffffffffffffffffffffffffffffff1614610284576040517f08c379a000000000000000000000000000000000000000000000000000000000815260040161027b90610aee565b60405180910390fd5b818160028686604051610298929190610bcb565b908152602001604051809103902091906102b3929190610591565b5050505050565b60606001826040516102cc9190610b4a565b908152602001604051809103902080546102e590610c13565b80601f016020809104026020016040519081016040528092919081815260200182805461031190610c13565b801561035e5780601f106103335761010080835404028352916020019161035e565b820191906000526020600020905b81548152906001019060200180831161034157829003601f168201915b50505050509050919050565b3373ffffffffffffffffffffffffffffffffffffffff166103896101e6565b73ffffffffffffffffffffffffffffffffffffffff16146103df576040517f08c379a00000000000000000000000000000000000000000000000000000000081526004016103d690610aee565b60405180910390fd5b600073ffffffffffffffffffffffffffffffffffffffff168173ffffffffffffffffffffffffffffffffffffffff160361044e576040517f08c379a000000000000000000000000000000000000000000000000000000000815260040161044590610cb6565b60405180910390fd5b8073ffffffffffffffffffffffffffffffffffffffff1660008054906101000a900473ffffffffffffffffffffffffffffffffffffffff1673ffffffffffffffffffffffffffffffffffffffff167f8be0079c531659141344cd1fd0a4f28419497f9722a3daafe3b4186f6b6457e060405160405180910390a3806000806101000a81548173ffffffffffffffffffffffffffffffffffffffff021916908373ffffffffffffffffffffffffffffffffffffffff16021790555050565b82805461051790610c13565b90600052602060002090601f0160209004810192826105395760008555610580565b82601f1061055257805160ff1916838001178555610580565b82800160010185558215610580579182015b8281111561057f578251825591602001919060010190610564565b5b50905061058d9190610617565b5090565b82805461059d90610c13565b90600052602060002090601f0160209004810192826105bf5760008555610606565b82601f106105d857803560ff1916838001178555610606565b82800160010185558215610606579182015b828111156106055782358255916020019190600101906105ea565b5b5090506106139190610617565b5090565b5b80821115610630576000816000905550600101610618565b5090565b6000604051905090565b600080fd5b600080fd5b600080fd5b600080fd5b6000601f19601f8301169050919050565b7f4e487b7100000000000000000000000000000000000000000000000000000000600052604160045260246000fd5b61069b82610652565b810181811067ffffffffffffffff821117156106ba576106b9610663565b5b80604052505050565b60006106cd610634565b90506106d98282610692565b919050565b600067ffffffffffffffff8211156106f9576106f8610663565b5b61070282610652565b9050602081019050919050565b82818337600083830152505050565b600061073161072c846106de565b6106c3565b90508281526020810184848401111561074d5761074c61064d565b5b61075884828561070f565b509392505050565b600082601f83011261077557610774610648565b5b813561078584826020860161071e565b91505092915050565b600073ffffffffffffffffffffffffffffffffffffffff82169050919050565b60006107b98261078e565b9050919050565b6107c9816107ae565b81146107d457600080fd5b50565b6000813590506107e6816107c0565b92915050565b6000806000606084860312156108055761080461063e565b5b600084013567ffffffffffffffff81111561082357610822610643565b5b61082f86828701610760565b9350506020610840868287016107d7565b925050604084013567ffffffffffffffff81111561086157610860610643565b5b61086d86828701610760565b9150509250925092565b610880816107ae565b82525050565b600060208201905061089b6000830184610877565b92915050565b600080fd5b600080fd5b60008083601f8401126108c1576108c0610648565b5b8235905067ffffffffffffffff8111156108de576108dd6108a1565b5b6020830191508360018202830111156108fa576108f96108a6565b5b9250929050565b6000806000806040858703121561091b5761091a61063e565b5b600085013567ffffffffffffffff81111561093957610938610643565b5b610945878288016108ab565b9450945050602085013567ffffffffffffffff81111561096857610967610643565b5b610974878288016108ab565b925092505092959194509250565b6000602082840312156109985761099761063e565b5b600082013567ffffffffffffffff8111156109b6576109b5610643565b5b6109c284828501610760565b91505092915050565b600081519050919050565b600082825260208201905092915050565b60005b83811015610a055780820151818401526020810190506109ea565b83811115610a14576000848401525b50505050565b6000610a25826109cb565b610a2f81856109d6565b9350610a3f8185602086016109e7565b610a4881610652565b840191505092915050565b60006020820190508181036000830152610a6d8184610a1a565b905092915050565b600060208284031215610a8b57610a8a61063e565b5b6000610a99848285016107d7565b91505092915050565b7f4f776e61626c653a2063616c6c6572206973206e6f7420746865206f776e6572600082015250565b6000610ad86020836109d6565b9150610ae382610aa2565b602082019050919050565b60006020820190508181036000830152610b0781610acb565b9050919050565b600081905092915050565b6000610b24826109cb565b610b2e8185610b0e565b9350610b3e8185602086016109e7565b80840191505092915050565b6000610b568284610b19565b915081905092915050565b60006060820190508181036000830152610b7b8186610a1a565b9050610b8a6020830185610877565b8181036040830152610b9c8184610a1a565b9050949350505050565b6000610bb28385610b0e565b9350610bbf83858461070f565b82840190509392505050565b6000610bd8828486610ba6565b91508190509392505050565b7f4e487b7100000000000000000000000000000000000000000000000000000000600052602260045260246000fd5b60006002820490506001821680610c2b57607f821691505b602082108103610c3e57610c3d610be4565b5b50919050565b7f4f776e61626c653a206e6577206f776e657220697320746865207a65726f206160008201527f6464726573730000000000000000000000000000000000000000000000000000602082015250565b6000610ca06026836109d6565b9150610cab82610c44565b604082019050919050565b60006020820190508181036000830152610ccf81610c93565b905091905056fea2646970667358221220c7af7cd012a99d2a8037ec0fe55fc475a3fb247fcd14613b67ca6432bb3bfd1f64736f6c634300080d0033a26469706673582212200fe0d09deff111563c509100b0d016a8766b36d7764cf2d27bbfaa3dab2b5d0664736f6c634300080d0033",
  "immutableReferences": {},
  "source": "//SPDX-License-Identifier: MIT\npragma solidity >=0.4.22 <=0.8.19;\nimport \"./PersonalIdentity.sol\";\npragma experimental ABIEncoderV2;\n\ncontract IdentityManager {\n    constructor() {\n        admin = msg.sender ;\n        Orgs[admin] = true ;\n    }\n    modifier onlyOrg {\n        require(Orgs[msg.sender],\"Only Organization can call.\");\n        _;\n    }\n\n    modifier onlyAdmin {\n        require(msg.sender == admin, \"Only Administrator can call.\");\n        _; \n    }\n\n    struct UserInfo {\n        address personalIdentityAddress; // address of access control manager \n        address userAddress;             // binding addrss, this also is user's public key\n    } // Userinfo\n\n    struct BindInfo {\n        string DID;  // user DID\n        uint userType; // usertype\n    } // BingInfo\n\n    address admin ;\n    mapping(address => bool) Orgs ;\n    mapping(string => UserInfo) IdentityInfo ; // DID map to userinfo\n    mapping(address => BindInfo) BindingInfo ; // wallet address map to DID\n    mapping(string => bool) RegistDID ; // Record the regist DID\n    mapping(address => bool) RegistAddress ; // Record the regist wallet address\n    // mapping(string => string ) private NationalIdList; // the record of NationalId and DID\n\n    function addUser(string memory DID) external onlyAdmin{\n        if( !RegistDID[DID] ) {\n            RegistDID[DID] = true ;\n            UserInfo memory info = UserInfo(\n                                        address(0),\n                                        address(0)\n                                    ) ;\n            IdentityInfo[DID] = info ;\n        } // if \n        \n    } // addUser()\n\n    function bindWallet(string memory DID, address _userAddress, uint _userType) external onlyAdmin{\n      require(RegistDID[DID] == true, \"DID was not resgist!!\") ; // DID need to be register first\n      require(RegistAddress[_userAddress] == false, \"The userAddress was bound before!!\") ; // _userAddress can not be bound before\n      require(IdentityInfo[DID].userAddress == address(0), \"DID already bound!!\") ; // bound DID can not bind again\n      \n      RegistAddress[_userAddress] = true ;\n      BindingInfo[_userAddress].DID = DID ;\n      BindingInfo[_userAddress].userType = _userType ;\n      // create contract and transfer ownership to user himself\n      PersonalIdentity personalIdentity = new PersonalIdentity() ;\n      personalIdentity.transferOwnership(_userAddress) ;\n        \n      // update user info\n      IdentityInfo[DID].personalIdentityAddress = address(personalIdentity) ;\n      IdentityInfo[DID].userAddress = _userAddress ;\n\n    } // bindWallet()\n\n    function addOrg(address org_address) external onlyAdmin {\n      Orgs[org_address] = true ; \n    } // addOrg()\n\n    // function checkDID(string calldata id) external onlyOrg returns(string memory) {\n      \n    // } // getDID \n\n    function getAccessManagerAddress(address userAddress) external view returns (address) {\n        return IdentityInfo[BindingInfo[userAddress].DID].personalIdentityAddress ;\n    } // getAccessManagerAddress() helper function\n\n    function getId() external view returns (string memory) {\n        return BindingInfo[msg.sender].DID ;\n    } // getId() helper function\n\n    function getUserType() external view returns (uint){\n        return BindingInfo[msg.sender].userType ; \n    } // getUserType() helper function\n}\n",
  "sourcePath": "/home/henry/EMR-sharing Dapp/did-chain/contracts/IdentityManager.sol",
  "compiler": {
    "name": "solc",
    "version": "0.8.13+commit.abaa5c0e.Emscripten.clang"
  },
  "schemaVersion": "3.4.16",
  "updatedAt": "2024-03-29T14:35:58.367Z",
  "networkType": "ethereum",
  "devdoc": {
    "kind": "dev",
    "methods": {},
    "version": 1
  },
  "userdoc": {
    "kind": "user",
    "methods": {},
    "version": 1
  }
}