{
  "contractName": "PersonalIdentity",
  "abi": [
    {
      "inputs": [],
      "stateMutability": "nonpayable",
      "type": "constructor"
    },
    {
      "anonymous": false,
      "inputs": [
        {
          "indexed": true,
          "internalType": "address",
          "name": "previousOwner",
          "type": "address"
        },
        {
          "indexed": true,
          "internalType": "address",
          "name": "newOwner",
          "type": "address"
        }
      ],
      "name": "OwnershipTransferred",
      "type": "event"
    },
    {
      "anonymous": false,
      "inputs": [
        {
          "indexed": false,
          "internalType": "string",
          "name": "Material",
          "type": "string"
        },
        {
          "indexed": false,
          "internalType": "address",
          "name": "org",
          "type": "address"
        },
        {
          "indexed": false,
          "internalType": "string",
          "name": "EncryptObject",
          "type": "string"
        }
      ],
      "name": "setEncryptMaterialEvent",
      "type": "event"
    },
    {
      "inputs": [],
      "name": "Owner",
      "outputs": [
        {
          "internalType": "address",
          "name": "",
          "type": "address"
        }
      ],
      "stateMutability": "view",
      "type": "function",
      "constant": true
    },
    {
      "inputs": [],
      "name": "Supervisor",
      "outputs": [
        {
          "internalType": "address",
          "name": "",
          "type": "address"
        }
      ],
      "stateMutability": "view",
      "type": "function",
      "constant": true
    },
    {
      "inputs": [
        {
          "internalType": "address",
          "name": "newOwner",
          "type": "address"
        }
      ],
      "name": "transferOwnership",
      "outputs": [],
      "stateMutability": "nonpayable",
      "type": "function"
    },
    {
      "inputs": [
        {
          "internalType": "string",
          "name": "org",
          "type": "string"
        }
      ],
      "name": "set_app",
      "outputs": [],
      "stateMutability": "nonpayable",
      "type": "function"
    },
    {
      "inputs": [],
      "name": "get_app",
      "outputs": [
        {
          "internalType": "string[]",
          "name": "",
          "type": "string[]"
        }
      ],
      "stateMutability": "view",
      "type": "function",
      "constant": true
    },
    {
      "inputs": [
        {
          "internalType": "string",
          "name": "org",
          "type": "string"
        },
        {
          "internalType": "string",
          "name": "encrypt_key",
          "type": "string"
        }
      ],
      "name": "set_app_private",
      "outputs": [],
      "stateMutability": "nonpayable",
      "type": "function"
    },
    {
      "inputs": [
        {
          "internalType": "string",
          "name": "org",
          "type": "string"
        }
      ],
      "name": "get_app_private",
      "outputs": [
        {
          "internalType": "string",
          "name": "",
          "type": "string"
        }
      ],
      "stateMutability": "view",
      "type": "function",
      "constant": true
    }
  ],
  "bytecode": "0x608060405234801561000f575f80fd5b505f339050805f806101000a81548173ffffffffffffffffffffffffffffffffffffffff021916908373ffffffffffffffffffffffffffffffffffffffff1602179055508060015f6101000a81548173ffffffffffffffffffffffffffffffffffffffff021916908373ffffffffffffffffffffffffffffffffffffffff1602179055508073ffffffffffffffffffffffffffffffffffffffff165f73ffffffffffffffffffffffffffffffffffffffff167f8be0079c531659141344cd1fd0a4f28419497f9722a3daafe3b4186f6b6457e060405160405180910390a350610fd9806100fb5f395ff3fe608060405234801561000f575f80fd5b506004361061007b575f3560e01c8063b4a99a4e11610059578063b4a99a4e146100d7578063e06d8718146100f5578063e8e632f514610125578063f2fde38b146101415761007b565b80635c3b58c01461007f5780638553c4e81461009d57806390a82ca9146100bb575b5f80fd5b61008761015d565b604051610094919061085d565b60405180910390f35b6100a56102a6565b6040516100b291906108bc565b60405180910390f35b6100d560048036038101906100d0919061093e565b6102ce565b005b6100df610382565b6040516100ec91906108bc565b60405180910390f35b61010f600480360381019061010a919061093e565b6103a9565b60405161011c91906109d1565b60405180910390f35b61013f600480360381019061013a91906109f1565b6104cf565b005b61015b60048036038101906101569190610a99565b61057a565b005b60603373ffffffffffffffffffffffffffffffffffffffff1661017e610382565b73ffffffffffffffffffffffffffffffffffffffff16146101d4576040517f08c379a00000000000000000000000000000000000000000000000000000000081526004016101cb90610b0e565b60405180910390fd5b6002805480602002602001604051908101604052809291908181526020015f905b8282101561029d578382905f5260205f2001805461021290610b59565b80601f016020809104026020016040519081016040528092919081815260200182805461023e90610b59565b80156102895780601f1061026057610100808354040283529160200191610289565b820191905f5260205f20905b81548152906001019060200180831161026c57829003601f168201915b5050505050815260200190600101906101f5565b50505050905090565b5f60015f9054906101000a900473ffffffffffffffffffffffffffffffffffffffff16905090565b3373ffffffffffffffffffffffffffffffffffffffff166102ed6102a6565b73ffffffffffffffffffffffffffffffffffffffff1614610343576040517f08c379a000000000000000000000000000000000000000000000000000000000815260040161033a90610bf9565b60405180910390fd5b6002828290918060018154018082558091505060019003905f5260205f20015f90919290919290919290919250918261037d929190610df4565b505050565b5f805f9054906101000a900473ffffffffffffffffffffffffffffffffffffffff16905090565b60603373ffffffffffffffffffffffffffffffffffffffff166103ca610382565b73ffffffffffffffffffffffffffffffffffffffff1614610420576040517f08c379a000000000000000000000000000000000000000000000000000000000815260040161041790610b0e565b60405180910390fd5b60038383604051610432929190610efd565b9081526020016040518091039020805461044b90610b59565b80601f016020809104026020016040519081016040528092919081815260200182805461047790610b59565b80156104c25780601f10610499576101008083540402835291602001916104c2565b820191905f5260205f20905b8154815290600101906020018083116104a557829003601f168201915b5050505050905092915050565b3373ffffffffffffffffffffffffffffffffffffffff166104ee610382565b73ffffffffffffffffffffffffffffffffffffffff1614610544576040517f08c379a000000000000000000000000000000000000000000000000000000000815260040161053b90610b0e565b60405180910390fd5b818160038686604051610558929190610efd565b90815260200160405180910390209182610573929190610df4565b5050505050565b3373ffffffffffffffffffffffffffffffffffffffff16610599610382565b73ffffffffffffffffffffffffffffffffffffffff16146105ef576040517f08c379a00000000000000000000000000000000000000000000000000000000081526004016105e690610b0e565b60405180910390fd5b5f73ffffffffffffffffffffffffffffffffffffffff168173ffffffffffffffffffffffffffffffffffffffff160361065d576040517f08c379a000000000000000000000000000000000000000000000000000000000815260040161065490610f85565b60405180910390fd5b8073ffffffffffffffffffffffffffffffffffffffff165f8054906101000a900473ffffffffffffffffffffffffffffffffffffffff1673ffffffffffffffffffffffffffffffffffffffff167f8be0079c531659141344cd1fd0a4f28419497f9722a3daafe3b4186f6b6457e060405160405180910390a3805f806101000a81548173ffffffffffffffffffffffffffffffffffffffff021916908373ffffffffffffffffffffffffffffffffffffffff16021790555050565b5f81519050919050565b5f82825260208201905092915050565b5f819050602082019050919050565b5f81519050919050565b5f82825260208201905092915050565b5f5b8381101561077857808201518184015260208101905061075d565b5f8484015250505050565b5f601f19601f8301169050919050565b5f61079d82610741565b6107a7818561074b565b93506107b781856020860161075b565b6107c081610783565b840191505092915050565b5f6107d68383610793565b905092915050565b5f602082019050919050565b5f6107f482610718565b6107fe8185610722565b93508360208202850161081085610732565b805f5b8581101561084b578484038952815161082c85826107cb565b9450610837836107de565b925060208a01995050600181019050610813565b50829750879550505050505092915050565b5f6020820190508181035f83015261087581846107ea565b905092915050565b5f73ffffffffffffffffffffffffffffffffffffffff82169050919050565b5f6108a68261087d565b9050919050565b6108b68161089c565b82525050565b5f6020820190506108cf5f8301846108ad565b92915050565b5f80fd5b5f80fd5b5f80fd5b5f80fd5b5f80fd5b5f8083601f8401126108fe576108fd6108dd565b5b8235905067ffffffffffffffff81111561091b5761091a6108e1565b5b602083019150836001820283011115610937576109366108e5565b5b9250929050565b5f8060208385031215610954576109536108d5565b5b5f83013567ffffffffffffffff811115610971576109706108d9565b5b61097d858286016108e9565b92509250509250929050565b5f82825260208201905092915050565b5f6109a382610741565b6109ad8185610989565b93506109bd81856020860161075b565b6109c681610783565b840191505092915050565b5f6020820190508181035f8301526109e98184610999565b905092915050565b5f805f8060408587031215610a0957610a086108d5565b5b5f85013567ffffffffffffffff811115610a2657610a256108d9565b5b610a32878288016108e9565b9450945050602085013567ffffffffffffffff811115610a5557610a546108d9565b5b610a61878288016108e9565b925092505092959194509250565b610a788161089c565b8114610a82575f80fd5b50565b5f81359050610a9381610a6f565b92915050565b5f60208284031215610aae57610aad6108d5565b5b5f610abb84828501610a85565b91505092915050565b7f4f776e61626c653a2063616c6c6572206973206e6f7420746865206f776e65725f82015250565b5f610af8602083610989565b9150610b0382610ac4565b602082019050919050565b5f6020820190508181035f830152610b2581610aec565b9050919050565b7f4e487b71000000000000000000000000000000000000000000000000000000005f52602260045260245ffd5b5f6002820490506001821680610b7057607f821691505b602082108103610b8357610b82610b2c565b5b50919050565b7f53757065727669736f7261626c653a2063616c6c6572206973206e6f742074685f8201527f652073757065727669736f720000000000000000000000000000000000000000602082015250565b5f610be3602c83610989565b9150610bee82610b89565b604082019050919050565b5f6020820190508181035f830152610c1081610bd7565b9050919050565b5f82905092915050565b7f4e487b71000000000000000000000000000000000000000000000000000000005f52604160045260245ffd5b5f819050815f5260205f209050919050565b5f6020601f8301049050919050565b5f82821b905092915050565b5f60088302610caa7fffffffffffffffffffffffffffffffffffffffffffffffffffffffffffffffff82610c6f565b610cb48683610c6f565b95508019841693508086168417925050509392505050565b5f819050919050565b5f819050919050565b5f610cf8610cf3610cee84610ccc565b610cd5565b610ccc565b9050919050565b5f819050919050565b610d1183610cde565b610d25610d1d82610cff565b848454610c7b565b825550505050565b5f90565b610d39610d2d565b610d44818484610d08565b505050565b5b81811015610d6757610d5c5f82610d31565b600181019050610d4a565b5050565b601f821115610dac57610d7d81610c4e565b610d8684610c60565b81016020851015610d95578190505b610da9610da185610c60565b830182610d49565b50505b505050565b5f82821c905092915050565b5f610dcc5f1984600802610db1565b1980831691505092915050565b5f610de48383610dbd565b9150826002028217905092915050565b610dfe8383610c17565b67ffffffffffffffff811115610e1757610e16610c21565b5b610e218254610b59565b610e2c828285610d6b565b5f601f831160018114610e59575f8415610e47578287013590505b610e518582610dd9565b865550610eb8565b601f198416610e6786610c4e565b5f5b82811015610e8e57848901358255600182019150602085019450602081019050610e69565b86831015610eab5784890135610ea7601f891682610dbd565b8355505b6001600288020188555050505b50505050505050565b5f81905092915050565b828183375f83830152505050565b5f610ee48385610ec1565b9350610ef1838584610ecb565b82840190509392505050565b5f610f09828486610ed9565b91508190509392505050565b7f4f776e61626c653a206e6577206f776e657220697320746865207a65726f20615f8201527f6464726573730000000000000000000000000000000000000000000000000000602082015250565b5f610f6f602683610989565b9150610f7a82610f15565b604082019050919050565b5f6020820190508181035f830152610f9c81610f63565b905091905056fea26469706673582212208daec55af85c38428c834941414d4a00e7eb52607e26f54295199cc26781551064736f6c63430008140033",
  "immutableReferences": {},
  "source": "// SPDX-License-Identifier: MIT\npragma solidity >=0.4.22 <=0.8.20;\n\ncontract PersonalIdentity {\n    // reference: https://github.com/OpenZeppelin/openzeppelin-contracts/blob/master/contracts/access/Ownable.sol\n    address private owner;\n    address private supervisor;\n    string[] app;\n    mapping(string=>string) app_private ;\n    \n    event OwnershipTransferred(address indexed previousOwner, address indexed newOwner);\n    event setEncryptMaterialEvent(string Material, address org, string EncryptObject);\n    \n    // remember to change public to internal\n    constructor () {\n        address msgSender = msg.sender;\n        owner = msgSender;\n        supervisor = msgSender;\n        emit OwnershipTransferred(address(0), msgSender);\n    }\n    \n    function Owner() public view returns (address) {\n        return owner;\n    }\n\n    function Supervisor() public view returns (address) {\n        return supervisor;\n    }\n    \n    modifier onlyOwner() {\n        require(Owner() == msg.sender, \"Ownable: caller is not the owner\");\n        _;\n    }\n\n    modifier onlySupervisor() {\n        require(Supervisor() == msg.sender, \"Supervisorable: caller is not the supervisor\");\n        _;\n    }\n\n    function transferOwnership(address newOwner) public onlyOwner {\n        require(newOwner != address(0), \"Ownable: new owner is the zero address\");\n        emit OwnershipTransferred(owner, newOwner);\n        owner = newOwner;\n    } // transferOwnership()\n\n    function set_app(string calldata org) public onlySupervisor {\n        app.push(org) ;\n    } // set_app()\n\n    function get_app() external view onlyOwner returns(string[] memory) {\n        return app ;\n    } // set_app()\n\n    function set_app_private(string calldata org, string calldata encrypt_key) external onlyOwner {\n        app_private[org] = encrypt_key ;\n    } // set_app_private()\n\n    function get_app_private(string calldata org) external view onlyOwner returns(string memory) {\n        return app_private[org] ;\n    } // set_app_private()\n\n    // function setEncryptMaterial(string memory Material, address org, string memory EncryptObject) public onlyOwner{\n    //     _encryptMaterial[Material] = EncryptObject;\n    //     emit setEncryptMaterialEvent(Material,org,EncryptObject);\n    // }\n\n    // function getEncryptMaterial(string memory Material) public view returns(string memory) {\n    //     return _encryptMaterial[Material];\n    // }\n}",
  "sourcePath": "/home/henry/EMR-sharing Dapp/did-chain/contracts/PersonalIdentity.sol",
  "compiler": {
    "name": "solc",
    "version": "0.8.20+commit.a1b79de6.Emscripten.clang"
  },
  "schemaVersion": "3.4.16",
  "updatedAt": "2024-04-28T09:11:43.508Z",
  "networkType": "ethereum",
  "devdoc": {
    "kind": "dev",
    "methods": {},
    "version": 1
  },
  "userdoc": {
    "kind": "user",
    "methods": {},
    "version": 1
  }
}