{
  "contractName": "PersonalIdentity",
  "abi": [
    {
      "inputs": [],
      "stateMutability": "nonpayable",
      "type": "constructor"
    },
    {
      "anonymous": false,
      "inputs": [
        {
          "indexed": true,
          "internalType": "address",
          "name": "previousOwner",
          "type": "address"
        },
        {
          "indexed": true,
          "internalType": "address",
          "name": "newOwner",
          "type": "address"
        }
      ],
      "name": "OwnershipTransferred",
      "type": "event"
    },
    {
      "anonymous": false,
      "inputs": [
        {
          "indexed": false,
          "internalType": "string",
          "name": "Material",
          "type": "string"
        },
        {
          "indexed": false,
          "internalType": "address",
          "name": "org",
          "type": "address"
        },
        {
          "indexed": false,
          "internalType": "string",
          "name": "EncryptObject",
          "type": "string"
        }
      ],
      "name": "setEncryptMaterialEvent",
      "type": "event"
    },
    {
      "inputs": [],
      "name": "owner",
      "outputs": [
        {
          "internalType": "address",
          "name": "",
          "type": "address"
        }
      ],
      "stateMutability": "view",
      "type": "function",
      "constant": true
    },
    {
      "inputs": [
        {
          "internalType": "string",
          "name": "org",
          "type": "string"
        },
        {
          "internalType": "string",
          "name": "encrypt_key",
          "type": "string"
        }
      ],
      "name": "set_app_private",
      "outputs": [],
      "stateMutability": "nonpayable",
      "type": "function"
    },
    {
      "inputs": [
        {
          "internalType": "address",
          "name": "newOwner",
          "type": "address"
        }
      ],
      "name": "transferOwnership",
      "outputs": [],
      "stateMutability": "nonpayable",
      "type": "function"
    },
    {
      "inputs": [
        {
          "internalType": "string",
          "name": "Material",
          "type": "string"
        },
        {
          "internalType": "address",
          "name": "org",
          "type": "address"
        },
        {
          "internalType": "string",
          "name": "EncryptObject",
          "type": "string"
        }
      ],
      "name": "setEncryptMaterial",
      "outputs": [],
      "stateMutability": "nonpayable",
      "type": "function"
    },
    {
      "inputs": [
        {
          "internalType": "string",
          "name": "Material",
          "type": "string"
        }
      ],
      "name": "getEncryptMaterial",
      "outputs": [
        {
          "internalType": "string",
          "name": "",
          "type": "string"
        }
      ],
      "stateMutability": "view",
      "type": "function",
      "constant": true
    }
  ],
  "bytecode": "0x608060405234801561001057600080fd5b506000339050806000806101000a81548173ffffffffffffffffffffffffffffffffffffffff021916908373ffffffffffffffffffffffffffffffffffffffff1602179055508073ffffffffffffffffffffffffffffffffffffffff16600073ffffffffffffffffffffffffffffffffffffffff167f8be0079c531659141344cd1fd0a4f28419497f9722a3daafe3b4186f6b6457e060405160405180910390a350610d0c806100c16000396000f3fe608060405234801561001057600080fd5b50600436106100575760003560e01c80638a1193361461005c5780638da5cb5b14610078578063e8e632f514610096578063ef2b47cb146100b2578063f2fde38b146100e2575b600080fd5b610076600480360381019061007191906107ec565b6100fe565b005b6100806101e6565b60405161008d9190610886565b60405180910390f35b6100b060048036038101906100ab9190610901565b61020f565b005b6100cc60048036038101906100c79190610982565b6102ba565b6040516100d99190610a53565b60405180910390f35b6100fc60048036038101906100f79190610a75565b61036a565b005b3373ffffffffffffffffffffffffffffffffffffffff1661011d6101e6565b73ffffffffffffffffffffffffffffffffffffffff1614610173576040517f08c379a000000000000000000000000000000000000000000000000000000000815260040161016a90610aee565b60405180910390fd5b806001846040516101849190610b4a565b908152602001604051809103902090805190602001906101a592919061050b565b507fd78e300afdee35775c631df9bdd9fc0be7bdce285fbb384b46d47f6d9d4fd3118383836040516101d993929190610b61565b60405180910390a1505050565b60008060009054906101000a900473ffffffffffffffffffffffffffffffffffffffff16905090565b3373ffffffffffffffffffffffffffffffffffffffff1661022e6101e6565b73ffffffffffffffffffffffffffffffffffffffff1614610284576040517f08c379a000000000000000000000000000000000000000000000000000000000815260040161027b90610aee565b60405180910390fd5b818160028686604051610298929190610bcb565b908152602001604051809103902091906102b3929190610591565b5050505050565b60606001826040516102cc9190610b4a565b908152602001604051809103902080546102e590610c13565b80601f016020809104026020016040519081016040528092919081815260200182805461031190610c13565b801561035e5780601f106103335761010080835404028352916020019161035e565b820191906000526020600020905b81548152906001019060200180831161034157829003601f168201915b50505050509050919050565b3373ffffffffffffffffffffffffffffffffffffffff166103896101e6565b73ffffffffffffffffffffffffffffffffffffffff16146103df576040517f08c379a00000000000000000000000000000000000000000000000000000000081526004016103d690610aee565b60405180910390fd5b600073ffffffffffffffffffffffffffffffffffffffff168173ffffffffffffffffffffffffffffffffffffffff160361044e576040517f08c379a000000000000000000000000000000000000000000000000000000000815260040161044590610cb6565b60405180910390fd5b8073ffffffffffffffffffffffffffffffffffffffff1660008054906101000a900473ffffffffffffffffffffffffffffffffffffffff1673ffffffffffffffffffffffffffffffffffffffff167f8be0079c531659141344cd1fd0a4f28419497f9722a3daafe3b4186f6b6457e060405160405180910390a3806000806101000a81548173ffffffffffffffffffffffffffffffffffffffff021916908373ffffffffffffffffffffffffffffffffffffffff16021790555050565b82805461051790610c13565b90600052602060002090601f0160209004810192826105395760008555610580565b82601f1061055257805160ff1916838001178555610580565b82800160010185558215610580579182015b8281111561057f578251825591602001919060010190610564565b5b50905061058d9190610617565b5090565b82805461059d90610c13565b90600052602060002090601f0160209004810192826105bf5760008555610606565b82601f106105d857803560ff1916838001178555610606565b82800160010185558215610606579182015b828111156106055782358255916020019190600101906105ea565b5b5090506106139190610617565b5090565b5b80821115610630576000816000905550600101610618565b5090565b6000604051905090565b600080fd5b600080fd5b600080fd5b600080fd5b6000601f19601f8301169050919050565b7f4e487b7100000000000000000000000000000000000000000000000000000000600052604160045260246000fd5b61069b82610652565b810181811067ffffffffffffffff821117156106ba576106b9610663565b5b80604052505050565b60006106cd610634565b90506106d98282610692565b919050565b600067ffffffffffffffff8211156106f9576106f8610663565b5b61070282610652565b9050602081019050919050565b82818337600083830152505050565b600061073161072c846106de565b6106c3565b90508281526020810184848401111561074d5761074c61064d565b5b61075884828561070f565b509392505050565b600082601f83011261077557610774610648565b5b813561078584826020860161071e565b91505092915050565b600073ffffffffffffffffffffffffffffffffffffffff82169050919050565b60006107b98261078e565b9050919050565b6107c9816107ae565b81146107d457600080fd5b50565b6000813590506107e6816107c0565b92915050565b6000806000606084860312156108055761080461063e565b5b600084013567ffffffffffffffff81111561082357610822610643565b5b61082f86828701610760565b9350506020610840868287016107d7565b925050604084013567ffffffffffffffff81111561086157610860610643565b5b61086d86828701610760565b9150509250925092565b610880816107ae565b82525050565b600060208201905061089b6000830184610877565b92915050565b600080fd5b600080fd5b60008083601f8401126108c1576108c0610648565b5b8235905067ffffffffffffffff8111156108de576108dd6108a1565b5b6020830191508360018202830111156108fa576108f96108a6565b5b9250929050565b6000806000806040858703121561091b5761091a61063e565b5b600085013567ffffffffffffffff81111561093957610938610643565b5b610945878288016108ab565b9450945050602085013567ffffffffffffffff81111561096857610967610643565b5b610974878288016108ab565b925092505092959194509250565b6000602082840312156109985761099761063e565b5b600082013567ffffffffffffffff8111156109b6576109b5610643565b5b6109c284828501610760565b91505092915050565b600081519050919050565b600082825260208201905092915050565b60005b83811015610a055780820151818401526020810190506109ea565b83811115610a14576000848401525b50505050565b6000610a25826109cb565b610a2f81856109d6565b9350610a3f8185602086016109e7565b610a4881610652565b840191505092915050565b60006020820190508181036000830152610a6d8184610a1a565b905092915050565b600060208284031215610a8b57610a8a61063e565b5b6000610a99848285016107d7565b91505092915050565b7f4f776e61626c653a2063616c6c6572206973206e6f7420746865206f776e6572600082015250565b6000610ad86020836109d6565b9150610ae382610aa2565b602082019050919050565b60006020820190508181036000830152610b0781610acb565b9050919050565b600081905092915050565b6000610b24826109cb565b610b2e8185610b0e565b9350610b3e8185602086016109e7565b80840191505092915050565b6000610b568284610b19565b915081905092915050565b60006060820190508181036000830152610b7b8186610a1a565b9050610b8a6020830185610877565b8181036040830152610b9c8184610a1a565b9050949350505050565b6000610bb28385610b0e565b9350610bbf83858461070f565b82840190509392505050565b6000610bd8828486610ba6565b91508190509392505050565b7f4e487b7100000000000000000000000000000000000000000000000000000000600052602260045260246000fd5b60006002820490506001821680610c2b57607f821691505b602082108103610c3e57610c3d610be4565b5b50919050565b7f4f776e61626c653a206e6577206f776e657220697320746865207a65726f206160008201527f6464726573730000000000000000000000000000000000000000000000000000602082015250565b6000610ca06026836109d6565b9150610cab82610c44565b604082019050919050565b60006020820190508181036000830152610ccf81610c93565b905091905056fea2646970667358221220c7af7cd012a99d2a8037ec0fe55fc475a3fb247fcd14613b67ca6432bb3bfd1f64736f6c634300080d0033",
  "immutableReferences": {},
  "source": "// SPDX-License-Identifier: MIT\npragma solidity >=0.4.22 <=0.8.19;\n\ncontract PersonalIdentity {\n    // reference: https://github.com/OpenZeppelin/openzeppelin-contracts/blob/master/contracts/access/Ownable.sol\n    address private _owner;\n    mapping(string=>string) _encryptMaterial;\n    mapping(string=>string) app_private ;\n    \n    event OwnershipTransferred(address indexed previousOwner, address indexed newOwner);\n    event setEncryptMaterialEvent(string Material, address org, string EncryptObject);\n    \n    // remember to change public to internal\n    constructor () {\n        address msgSender = msg.sender;\n        _owner = msgSender;\n        emit OwnershipTransferred(address(0), msgSender);\n    }\n    \n    function owner() public view returns (address) {\n        return _owner;\n    }\n    \n    modifier onlyOwner() {\n        require(owner() == msg.sender, \"Ownable: caller is not the owner\");\n        _;\n    }\n\n    function set_app_private(string calldata org, string calldata encrypt_key) external onlyOwner {\n        app_private[org] = encrypt_key ;\n    } // set_app_private()\n    \n    function transferOwnership(address newOwner) public onlyOwner {\n        require(newOwner != address(0), \"Ownable: new owner is the zero address\");\n        emit OwnershipTransferred(_owner, newOwner);\n        _owner = newOwner;\n    }\n\n    function setEncryptMaterial(string memory Material, address org, string memory EncryptObject) public onlyOwner{\n        _encryptMaterial[Material] = EncryptObject;\n        emit setEncryptMaterialEvent(Material,org,EncryptObject);\n    }\n\n    function getEncryptMaterial(string memory Material) public view returns(string memory) {\n        return _encryptMaterial[Material];\n    }\n}",
  "sourcePath": "/home/henry/EMR-sharing Dapp/did-chain/contracts/PersonalIdentity.sol",
  "compiler": {
    "name": "solc",
    "version": "0.8.13+commit.abaa5c0e.Emscripten.clang"
  },
  "schemaVersion": "3.4.16",
  "updatedAt": "2024-03-28T12:20:59.079Z",
  "networkType": "ethereum",
  "devdoc": {
    "kind": "dev",
    "methods": {},
    "version": 1
  },
  "userdoc": {
    "kind": "user",
    "methods": {},
    "version": 1
  }
}