{
  "contractName": "PersonalIdentity",
  "abi": [
    {
      "inputs": [],
      "stateMutability": "nonpayable",
      "type": "constructor"
    },
    {
      "anonymous": false,
      "inputs": [
        {
          "indexed": true,
          "internalType": "address",
          "name": "previousOwner",
          "type": "address"
        },
        {
          "indexed": true,
          "internalType": "address",
          "name": "newOwner",
          "type": "address"
        }
      ],
      "name": "OwnershipTransferred",
      "type": "event"
    },
    {
      "anonymous": false,
      "inputs": [
        {
          "indexed": false,
          "internalType": "string",
          "name": "Material",
          "type": "string"
        },
        {
          "indexed": false,
          "internalType": "address",
          "name": "org",
          "type": "address"
        },
        {
          "indexed": false,
          "internalType": "string",
          "name": "EncryptObject",
          "type": "string"
        }
      ],
      "name": "setEncryptMaterialEvent",
      "type": "event"
    },
    {
      "inputs": [],
      "name": "Owner",
      "outputs": [
        {
          "internalType": "address",
          "name": "",
          "type": "address"
        }
      ],
      "stateMutability": "view",
      "type": "function",
      "constant": true
    },
    {
      "inputs": [],
      "name": "Supervisor",
      "outputs": [
        {
          "internalType": "address",
          "name": "",
          "type": "address"
        }
      ],
      "stateMutability": "view",
      "type": "function",
      "constant": true
    },
    {
      "inputs": [
        {
          "internalType": "address",
          "name": "newOwner",
          "type": "address"
        }
      ],
      "name": "transferOwnership",
      "outputs": [],
      "stateMutability": "nonpayable",
      "type": "function"
    },
    {
      "inputs": [
        {
          "internalType": "string",
          "name": "org",
          "type": "string"
        }
      ],
      "name": "set_app",
      "outputs": [],
      "stateMutability": "nonpayable",
      "type": "function"
    },
    {
      "inputs": [],
      "name": "get_app",
      "outputs": [
        {
          "internalType": "string[]",
          "name": "",
          "type": "string[]"
        }
      ],
      "stateMutability": "view",
      "type": "function",
      "constant": true
    },
    {
      "inputs": [
        {
          "internalType": "string",
          "name": "org",
          "type": "string"
        },
        {
          "internalType": "string",
          "name": "encrypt_key",
          "type": "string"
        }
      ],
      "name": "set_app_private",
      "outputs": [
        {
          "internalType": "bool",
          "name": "",
          "type": "bool"
        }
      ],
      "stateMutability": "nonpayable",
      "type": "function"
    },
    {
      "inputs": [
        {
          "internalType": "string",
          "name": "org",
          "type": "string"
        }
      ],
      "name": "get_app_private",
      "outputs": [
        {
          "internalType": "string",
          "name": "",
          "type": "string"
        }
      ],
      "stateMutability": "view",
      "type": "function",
      "constant": true
    }
  ],
  "bytecode": "0x608060405234801561000f575f80fd5b505f339050805f806101000a81548173ffffffffffffffffffffffffffffffffffffffff021916908373ffffffffffffffffffffffffffffffffffffffff1602179055508060015f6101000a81548173ffffffffffffffffffffffffffffffffffffffff021916908373ffffffffffffffffffffffffffffffffffffffff1602179055508073ffffffffffffffffffffffffffffffffffffffff165f73ffffffffffffffffffffffffffffffffffffffff167f8be0079c531659141344cd1fd0a4f28419497f9722a3daafe3b4186f6b6457e060405160405180910390a350610fb2806100fb5f395ff3fe608060405234801561000f575f80fd5b506004361061007b575f3560e01c8063b4a99a4e11610059578063b4a99a4e146100d7578063e06d8718146100f5578063e8e632f514610125578063f2fde38b146101555761007b565b80635c3b58c01461007f5780638553c4e81461009d57806390a82ca9146100bb575b5f80fd5b610087610171565b6040516100949190610803565b60405180910390f35b6100a56102ba565b6040516100b29190610862565b60405180910390f35b6100d560048036038101906100d091906108e4565b6102e2565b005b6100df610396565b6040516100ec9190610862565b60405180910390f35b61010f600480360381019061010a91906108e4565b6103bd565b60405161011c9190610977565b60405180910390f35b61013f600480360381019061013a9190610997565b61046e565b60405161014c9190610a2f565b60405180910390f35b61016f600480360381019061016a9190610a72565b610520565b005b60603373ffffffffffffffffffffffffffffffffffffffff16610192610396565b73ffffffffffffffffffffffffffffffffffffffff16146101e8576040517f08c379a00000000000000000000000000000000000000000000000000000000081526004016101df90610ae7565b60405180910390fd5b6002805480602002602001604051908101604052809291908181526020015f905b828210156102b1578382905f5260205f2001805461022690610b32565b80601f016020809104026020016040519081016040528092919081815260200182805461025290610b32565b801561029d5780601f106102745761010080835404028352916020019161029d565b820191905f5260205f20905b81548152906001019060200180831161028057829003601f168201915b505050505081526020019060010190610209565b50505050905090565b5f60015f9054906101000a900473ffffffffffffffffffffffffffffffffffffffff16905090565b3373ffffffffffffffffffffffffffffffffffffffff166103016102ba565b73ffffffffffffffffffffffffffffffffffffffff1614610357576040517f08c379a000000000000000000000000000000000000000000000000000000000815260040161034e90610bd2565b60405180910390fd5b6002828290918060018154018082558091505060019003905f5260205f20015f909192909192909192909192509182610391929190610dcd565b505050565b5f805f9054906101000a900473ffffffffffffffffffffffffffffffffffffffff16905090565b6060600383836040516103d1929190610ed6565b908152602001604051809103902080546103ea90610b32565b80601f016020809104026020016040519081016040528092919081815260200182805461041690610b32565b80156104615780601f1061043857610100808354040283529160200191610461565b820191905f5260205f20905b81548152906001019060200180831161044457829003601f168201915b5050505050905092915050565b5f3373ffffffffffffffffffffffffffffffffffffffff1661048e610396565b73ffffffffffffffffffffffffffffffffffffffff16146104e4576040517f08c379a00000000000000000000000000000000000000000000000000000000081526004016104db90610ae7565b60405180910390fd5b8282600387876040516104f8929190610ed6565b90815260200160405180910390209182610513929190610dcd565b5060019050949350505050565b3373ffffffffffffffffffffffffffffffffffffffff1661053f610396565b73ffffffffffffffffffffffffffffffffffffffff1614610595576040517f08c379a000000000000000000000000000000000000000000000000000000000815260040161058c90610ae7565b60405180910390fd5b5f73ffffffffffffffffffffffffffffffffffffffff168173ffffffffffffffffffffffffffffffffffffffff1603610603576040517f08c379a00000000000000000000000000000000000000000000000000000000081526004016105fa90610f5e565b60405180910390fd5b8073ffffffffffffffffffffffffffffffffffffffff165f8054906101000a900473ffffffffffffffffffffffffffffffffffffffff1673ffffffffffffffffffffffffffffffffffffffff167f8be0079c531659141344cd1fd0a4f28419497f9722a3daafe3b4186f6b6457e060405160405180910390a3805f806101000a81548173ffffffffffffffffffffffffffffffffffffffff021916908373ffffffffffffffffffffffffffffffffffffffff16021790555050565b5f81519050919050565b5f82825260208201905092915050565b5f819050602082019050919050565b5f81519050919050565b5f82825260208201905092915050565b5f5b8381101561071e578082015181840152602081019050610703565b5f8484015250505050565b5f601f19601f8301169050919050565b5f610743826106e7565b61074d81856106f1565b935061075d818560208601610701565b61076681610729565b840191505092915050565b5f61077c8383610739565b905092915050565b5f602082019050919050565b5f61079a826106be565b6107a481856106c8565b9350836020820285016107b6856106d8565b805f5b858110156107f157848403895281516107d28582610771565b94506107dd83610784565b925060208a019950506001810190506107b9565b50829750879550505050505092915050565b5f6020820190508181035f83015261081b8184610790565b905092915050565b5f73ffffffffffffffffffffffffffffffffffffffff82169050919050565b5f61084c82610823565b9050919050565b61085c81610842565b82525050565b5f6020820190506108755f830184610853565b92915050565b5f80fd5b5f80fd5b5f80fd5b5f80fd5b5f80fd5b5f8083601f8401126108a4576108a3610883565b5b8235905067ffffffffffffffff8111156108c1576108c0610887565b5b6020830191508360018202830111156108dd576108dc61088b565b5b9250929050565b5f80602083850312156108fa576108f961087b565b5b5f83013567ffffffffffffffff8111156109175761091661087f565b5b6109238582860161088f565b92509250509250929050565b5f82825260208201905092915050565b5f610949826106e7565b610953818561092f565b9350610963818560208601610701565b61096c81610729565b840191505092915050565b5f6020820190508181035f83015261098f818461093f565b905092915050565b5f805f80604085870312156109af576109ae61087b565b5b5f85013567ffffffffffffffff8111156109cc576109cb61087f565b5b6109d88782880161088f565b9450945050602085013567ffffffffffffffff8111156109fb576109fa61087f565b5b610a078782880161088f565b925092505092959194509250565b5f8115159050919050565b610a2981610a15565b82525050565b5f602082019050610a425f830184610a20565b92915050565b610a5181610842565b8114610a5b575f80fd5b50565b5f81359050610a6c81610a48565b92915050565b5f60208284031215610a8757610a8661087b565b5b5f610a9484828501610a5e565b91505092915050565b7f4f776e61626c653a2063616c6c6572206973206e6f7420746865206f776e65725f82015250565b5f610ad160208361092f565b9150610adc82610a9d565b602082019050919050565b5f6020820190508181035f830152610afe81610ac5565b9050919050565b7f4e487b71000000000000000000000000000000000000000000000000000000005f52602260045260245ffd5b5f6002820490506001821680610b4957607f821691505b602082108103610b5c57610b5b610b05565b5b50919050565b7f53757065727669736f7261626c653a2063616c6c6572206973206e6f742074685f8201527f652073757065727669736f720000000000000000000000000000000000000000602082015250565b5f610bbc602c8361092f565b9150610bc782610b62565b604082019050919050565b5f6020820190508181035f830152610be981610bb0565b9050919050565b5f82905092915050565b7f4e487b71000000000000000000000000000000000000000000000000000000005f52604160045260245ffd5b5f819050815f5260205f209050919050565b5f6020601f8301049050919050565b5f82821b905092915050565b5f60088302610c837fffffffffffffffffffffffffffffffffffffffffffffffffffffffffffffffff82610c48565b610c8d8683610c48565b95508019841693508086168417925050509392505050565b5f819050919050565b5f819050919050565b5f610cd1610ccc610cc784610ca5565b610cae565b610ca5565b9050919050565b5f819050919050565b610cea83610cb7565b610cfe610cf682610cd8565b848454610c54565b825550505050565b5f90565b610d12610d06565b610d1d818484610ce1565b505050565b5b81811015610d4057610d355f82610d0a565b600181019050610d23565b5050565b601f821115610d8557610d5681610c27565b610d5f84610c39565b81016020851015610d6e578190505b610d82610d7a85610c39565b830182610d22565b50505b505050565b5f82821c905092915050565b5f610da55f1984600802610d8a565b1980831691505092915050565b5f610dbd8383610d96565b9150826002028217905092915050565b610dd78383610bf0565b67ffffffffffffffff811115610df057610def610bfa565b5b610dfa8254610b32565b610e05828285610d44565b5f601f831160018114610e32575f8415610e20578287013590505b610e2a8582610db2565b865550610e91565b601f198416610e4086610c27565b5f5b82811015610e6757848901358255600182019150602085019450602081019050610e42565b86831015610e845784890135610e80601f891682610d96565b8355505b6001600288020188555050505b50505050505050565b5f81905092915050565b828183375f83830152505050565b5f610ebd8385610e9a565b9350610eca838584610ea4565b82840190509392505050565b5f610ee2828486610eb2565b91508190509392505050565b7f4f776e61626c653a206e6577206f776e657220697320746865207a65726f20615f8201527f6464726573730000000000000000000000000000000000000000000000000000602082015250565b5f610f4860268361092f565b9150610f5382610eee565b604082019050919050565b5f6020820190508181035f830152610f7581610f3c565b905091905056fea26469706673582212203bdfe68172f8f7c39c2a42d87cc31b20523be9fddff1a2b4382b49ed308027e864736f6c63430008140033",
  "immutableReferences": {},
  "source": "// SPDX-License-Identifier: MIT\npragma solidity >=0.4.22 <=0.8.20;\n\ncontract PersonalIdentity {\n    // reference: https://github.com/OpenZeppelin/openzeppelin-contracts/blob/master/contracts/access/Ownable.sol\n    address private owner;\n    address private supervisor;\n    string[] app;\n    mapping(string=>string) app_private ;\n    \n    event OwnershipTransferred(address indexed previousOwner, address indexed newOwner);\n    event setEncryptMaterialEvent(string Material, address org, string EncryptObject);\n    \n    // remember to change public to internal\n    constructor () {\n        address msgSender = msg.sender;\n        owner = msgSender;\n        supervisor = msgSender;\n        emit OwnershipTransferred(address(0), msgSender);\n    }\n    \n    function Owner() public view returns (address) {\n        return owner;\n    }\n\n    function Supervisor() public view returns (address) {\n        return supervisor;\n    }\n    \n    modifier onlyOwner() {\n        require(Owner() == msg.sender, \"Ownable: caller is not the owner\");\n        _;\n    }\n\n    modifier onlySupervisor() {\n        require(Supervisor() == msg.sender, \"Supervisorable: caller is not the supervisor\");\n        _;\n    }\n\n    function transferOwnership(address newOwner) public onlyOwner {\n        require(newOwner != address(0), \"Ownable: new owner is the zero address\");\n        emit OwnershipTransferred(owner, newOwner);\n        owner = newOwner;\n    } // transferOwnership()\n\n    function set_app(string calldata org) public onlySupervisor {\n        app.push(org) ;\n    } // set_app()\n\n    function get_app() external view onlyOwner returns(string[] memory) {\n        return app ;\n    } // set_app()\n\n    function set_app_private(string calldata org, string calldata encrypt_key) external onlyOwner returns(bool) {\n        app_private[org] = encrypt_key ;\n        return true ;\n    } // set_app_private()\n\n    function get_app_private(string calldata org) external view returns(string memory) {\n        return app_private[org] ;\n    } // set_app_private()\n\n    // function setEncryptMaterial(string memory Material, address org, string memory EncryptObject) public onlyOwner{\n    //     _encryptMaterial[Material] = EncryptObject;\n    //     emit setEncryptMaterialEvent(Material,org,EncryptObject);\n    // }\n\n    // function getEncryptMaterial(string memory Material) public view returns(string memory) {\n    //     return _encryptMaterial[Material];\n    // }\n}",
  "sourcePath": "/home/henry/EMR-sharing-Dapp/did-chain/contracts/PersonalIdentity.sol",
  "compiler": {
    "name": "solc",
    "version": "0.8.20+commit.a1b79de6.Emscripten.clang"
  },
  "schemaVersion": "3.4.16",
  "updatedAt": "2024-05-03T15:35:50.707Z",
  "networkType": "ethereum",
  "devdoc": {
    "kind": "dev",
    "methods": {},
    "version": 1
  },
  "userdoc": {
    "kind": "user",
    "methods": {},
    "version": 1
  }
}